{
  "_format": "hh-sol-artifact-1",
  "contractName": "Ballot",
  "sourceName": "contracts/Ballot.sol",
  "abi": [
    {
      "inputs": [
        {
          "internalType": "bytes32[]",
          "name": "proposalNames",
          "type": "bytes32[]"
        },
        {
          "internalType": "address",
          "name": "_tokenContract",
          "type": "address"
        }
      ],
      "stateMutability": "nonpayable",
      "type": "constructor"
    },
    {
      "inputs": [],
      "name": "blockTarget",
      "outputs": [
        {
          "internalType": "uint256",
          "name": "",
          "type": "uint256"
        }
      ],
      "stateMutability": "view",
      "type": "function"
    },
    {
      "inputs": [
        {
          "internalType": "uint256",
          "name": "",
          "type": "uint256"
        }
      ],
      "name": "proposals",
      "outputs": [
        {
          "internalType": "bytes32",
          "name": "name",
          "type": "bytes32"
        },
        {
          "internalType": "uint256",
          "name": "voteCount",
          "type": "uint256"
        }
      ],
      "stateMutability": "view",
      "type": "function"
    },
    {
      "inputs": [],
      "name": "tokenContract",
      "outputs": [
        {
          "internalType": "contract IMyToken",
          "name": "",
          "type": "address"
        }
      ],
      "stateMutability": "view",
      "type": "function"
    },
    {
      "inputs": [
        {
          "internalType": "uint256",
          "name": "proposal",
          "type": "uint256"
        },
        {
          "internalType": "uint256",
          "name": "amount",
          "type": "uint256"
        }
      ],
      "name": "vote",
      "outputs": [],
      "stateMutability": "nonpayable",
      "type": "function"
    },
    {
      "inputs": [
        {
          "internalType": "address",
          "name": "",
          "type": "address"
        }
      ],
      "name": "votesCast",
      "outputs": [
        {
          "internalType": "uint256",
          "name": "",
          "type": "uint256"
        }
      ],
      "stateMutability": "view",
      "type": "function"
    },
    {
      "inputs": [
        {
          "internalType": "address",
          "name": "account",
          "type": "address"
        }
      ],
      "name": "votingPower",
      "outputs": [
        {
          "internalType": "uint256",
          "name": "",
          "type": "uint256"
        }
      ],
      "stateMutability": "view",
      "type": "function"
    },
    {
      "inputs": [],
      "name": "winnerName",
      "outputs": [
        {
          "internalType": "bytes32",
          "name": "winnerName_",
          "type": "bytes32"
        }
      ],
      "stateMutability": "view",
      "type": "function"
    },
    {
      "inputs": [],
      "name": "winningProposal",
      "outputs": [
        {
          "internalType": "uint256",
          "name": "winningProposal_",
          "type": "uint256"
        }
      ],
      "stateMutability": "view",
      "type": "function"
    }
  ],
  "bytecode": "0x60806040523480156200001157600080fd5b5060405162000d8238038062000d82833981810160405281019062000037919062000341565b80600160006101000a81548173ffffffffffffffffffffffffffffffffffffffff021916908373ffffffffffffffffffffffffffffffffffffffff16021790555060005b82518110156200010f5760006040518060400160405280858481518110620000a857620000a7620003a7565b5b602002602001015181526020016000815250908060018154018082558091505060019003906000526020600020906002020160009091909190915060008201518160000155602082015181600101555050808062000106906200040f565b9150506200007b565b5050506200045c565b6000604051905090565b600080fd5b600080fd5b600080fd5b6000601f19601f8301169050919050565b7f4e487b7100000000000000000000000000000000000000000000000000000000600052604160045260246000fd5b6200017c8262000131565b810181811067ffffffffffffffff821117156200019e576200019d62000142565b5b80604052505050565b6000620001b362000118565b9050620001c1828262000171565b919050565b600067ffffffffffffffff821115620001e457620001e362000142565b5b602082029050602081019050919050565b600080fd5b6000819050919050565b6200020f81620001fa565b81146200021b57600080fd5b50565b6000815190506200022f8162000204565b92915050565b60006200024c6200024684620001c6565b620001a7565b90508083825260208201905060208402830185811115620002725762000271620001f5565b5b835b818110156200029f57806200028a88826200021e565b84526020840193505060208101905062000274565b5050509392505050565b600082601f830112620002c157620002c06200012c565b5b8151620002d384826020860162000235565b91505092915050565b600073ffffffffffffffffffffffffffffffffffffffff82169050919050565b60006200030982620002dc565b9050919050565b6200031b81620002fc565b81146200032757600080fd5b50565b6000815190506200033b8162000310565b92915050565b600080604083850312156200035b576200035a62000122565b5b600083015167ffffffffffffffff8111156200037c576200037b62000127565b5b6200038a85828601620002a9565b92505060206200039d858286016200032a565b9150509250929050565b7f4e487b7100000000000000000000000000000000000000000000000000000000600052603260045260246000fd5b7f4e487b7100000000000000000000000000000000000000000000000000000000600052601160045260246000fd5b6000819050919050565b60006200041c8262000405565b91507fffffffffffffffffffffffffffffffffffffffffffffffffffffffffffffffff8203620004515762000450620003d6565b5b600182019050919050565b610916806200046c6000396000f3fe608060405234801561001057600080fd5b50600436106100885760003560e01c806379e170801161005b57806379e1708014610118578063b384abef14610148578063c07473f614610164578063e2ba53f01461019457610088565b8063013cf08b1461008d578063037165f4146100be57806355a373d6146100dc578063609ff1bd146100fa575b600080fd5b6100a760048036038101906100a291906104f0565b6101b2565b6040516100b5929190610545565b60405180910390f35b6100c66101e6565b6040516100d3919061056e565b60405180910390f35b6100e46101ec565b6040516100f19190610608565b60405180910390f35b610102610212565b60405161010f919061056e565b60405180910390f35b610132600480360381019061012d9190610661565b61029a565b60405161013f919061056e565b60405180910390f35b610162600480360381019061015d919061068e565b6102b2565b005b61017e60048036038101906101799190610661565b610393565b60405161018b919061056e565b60405180910390f35b61019c610482565b6040516101a991906106ce565b60405180910390f35b600081815481106101c257600080fd5b90600052602060002090600202016000915090508060000154908060010154905082565b60025481565b600160009054906101000a900473ffffffffffffffffffffffffffffffffffffffff1681565b6000806000905060005b60008054905081101561029557816000828154811061023e5761023d6106e9565b5b9060005260206000209060020201600101541115610282576000818154811061026a576102696106e9565b5b90600052602060002090600202016001015491508092505b808061028d90610747565b91505061021c565b505090565b60036020528060005260406000206000915090505481565b806102bc33610393565b10156102fd576040517f08c379a00000000000000000000000000000000000000000000000000000000081526004016102f4906107ec565b60405180910390fd5b80600360003373ffffffffffffffffffffffffffffffffffffffff1673ffffffffffffffffffffffffffffffffffffffff168152602001908152602001600020600082825461034c919061080c565b925050819055508060008381548110610368576103676106e9565b5b90600052602060002090600202016001016000828254610388919061080c565b925050819055505050565b6000600360008373ffffffffffffffffffffffffffffffffffffffff1673ffffffffffffffffffffffffffffffffffffffff16815260200190815260200160002054600160009054906101000a900473ffffffffffffffffffffffffffffffffffffffff1673ffffffffffffffffffffffffffffffffffffffff16639ab24eb0846040518263ffffffff1660e01b8152600401610430919061084f565b602060405180830381865afa15801561044d573d6000803e3d6000fd5b505050506040513d601f19601f82011682018060405250810190610471919061087f565b61047b91906108ac565b9050919050565b60008061048d610212565b8154811061049e5761049d6106e9565b5b906000526020600020906002020160000154905090565b600080fd5b6000819050919050565b6104cd816104ba565b81146104d857600080fd5b50565b6000813590506104ea816104c4565b92915050565b600060208284031215610506576105056104b5565b5b6000610514848285016104db565b91505092915050565b6000819050919050565b6105308161051d565b82525050565b61053f816104ba565b82525050565b600060408201905061055a6000830185610527565b6105676020830184610536565b9392505050565b60006020820190506105836000830184610536565b92915050565b600073ffffffffffffffffffffffffffffffffffffffff82169050919050565b6000819050919050565b60006105ce6105c96105c484610589565b6105a9565b610589565b9050919050565b60006105e0826105b3565b9050919050565b60006105f2826105d5565b9050919050565b610602816105e7565b82525050565b600060208201905061061d60008301846105f9565b92915050565b600061062e82610589565b9050919050565b61063e81610623565b811461064957600080fd5b50565b60008135905061065b81610635565b92915050565b600060208284031215610677576106766104b5565b5b60006106858482850161064c565b91505092915050565b600080604083850312156106a5576106a46104b5565b5b60006106b3858286016104db565b92505060206106c4858286016104db565b9150509250929050565b60006020820190506106e36000830184610527565b92915050565b7f4e487b7100000000000000000000000000000000000000000000000000000000600052603260045260246000fd5b7f4e487b7100000000000000000000000000000000000000000000000000000000600052601160045260246000fd5b6000610752826104ba565b91507fffffffffffffffffffffffffffffffffffffffffffffffffffffffffffffffff820361078457610783610718565b5b600182019050919050565b600082825260208201905092915050565b7f4e6f7420656e6f75676820766f74696e6720706f776572000000000000000000600082015250565b60006107d660178361078f565b91506107e1826107a0565b602082019050919050565b60006020820190508181036000830152610805816107c9565b9050919050565b6000610817826104ba565b9150610822836104ba565b925082820190508082111561083a57610839610718565b5b92915050565b61084981610623565b82525050565b60006020820190506108646000830184610840565b92915050565b600081519050610879816104c4565b92915050565b600060208284031215610895576108946104b5565b5b60006108a38482850161086a565b91505092915050565b60006108b7826104ba565b91506108c2836104ba565b92508282039050818111156108da576108d9610718565b5b9291505056fea26469706673582212205cb64033bb893b3446e6e0ca7e07f2f8bda772d0f4a8205158f521c696217fae64736f6c63430008110033",
  "linkReferences": {},
  "deployedLinkReferences": {}
}